:060000000A128A1180289B
:10000800F000030EF1000C1817200B191020710EC8
:100018008300F00E700E090003138312FB30810079
:100028000B11D4200800E1308F007C308E000C10BA
:04003800A00A080012
:1001000088209820AC209F20BA20C520CD208528AB
:1001100003178316880189010313831686010810CB
:10012000881003138312860108148814A1010800A3
:10013000031383160F100F138F160F1208000313EB
:10014000831681128111011581140110031383128A
:10015000FB3081000B11080003138312101390165B
:100160001016901190101014E1308F007C308E002A
:100170000C100800031383160C14031383128B173F
:100180000B170C108B160B1108000F302005A20066
:10019000F0302005A300A30E080022080022A400CE
:1001A00023080022A500080003308800211CDD2858
:1001B00024088600881021100800250886000810F1
:0401C00021140800FE
:100400008A018A148207C034F934A434B034993490
:1004100092348234F8348034903488348334C6344F
:06042000A13486348E3485
:04400E00C430FF3F7C
:00000001FF
